{
  "_format": "hh-sol-artifact-1",
  "contractName": "GestionRH",
  "sourceName": "contracts/GestionRH.sol",
  "abi": [
    {
      "inputs": [],
      "stateMutability": "nonpayable",
      "type": "constructor"
    },
    {
      "anonymous": false,
      "inputs": [
        {
          "indexed": true,
          "internalType": "address",
          "name": "walletAddress",
          "type": "address"
        },
        {
          "indexed": false,
          "internalType": "string",
          "name": "name",
          "type": "string"
        },
        {
          "indexed": false,
          "internalType": "string",
          "name": "position",
          "type": "string"
        }
      ],
      "name": "EmployeeAdded",
      "type": "event"
    },
    {
      "inputs": [
        {
          "internalType": "address",
          "name": "_walletAddress",
          "type": "address"
        },
        {
          "internalType": "string",
          "name": "_name",
          "type": "string"
        },
        {
          "internalType": "string",
          "name": "_position",
          "type": "string"
        },
        {
          "internalType": "uint256",
          "name": "_salary",
          "type": "uint256"
        }
      ],
      "name": "addEmployee",
      "outputs": [],
      "stateMutability": "nonpayable",
      "type": "function"
    },
    {
      "inputs": [],
      "name": "getAllEmployees",
      "outputs": [
        {
          "components": [
            {
              "internalType": "address",
              "name": "walletAddress",
              "type": "address"
            },
            {
              "internalType": "string",
              "name": "name",
              "type": "string"
            },
            {
              "internalType": "string",
              "name": "position",
              "type": "string"
            },
            {
              "internalType": "uint256",
              "name": "salary",
              "type": "uint256"
            },
            {
              "internalType": "bool",
              "name": "isRegistered",
              "type": "bool"
            }
          ],
          "internalType": "struct GestionRH.Employee[]",
          "name": "",
          "type": "tuple[]"
        }
      ],
      "stateMutability": "view",
      "type": "function"
    },
    {
      "inputs": [],
      "name": "getMyInfo",
      "outputs": [
        {
          "components": [
            {
              "internalType": "address",
              "name": "walletAddress",
              "type": "address"
            },
            {
              "internalType": "string",
              "name": "name",
              "type": "string"
            },
            {
              "internalType": "string",
              "name": "position",
              "type": "string"
            },
            {
              "internalType": "uint256",
              "name": "salary",
              "type": "uint256"
            },
            {
              "internalType": "bool",
              "name": "isRegistered",
              "type": "bool"
            }
          ],
          "internalType": "struct GestionRH.Employee",
          "name": "",
          "type": "tuple"
        }
      ],
      "stateMutability": "view",
      "type": "function"
    },
    {
      "inputs": [],
      "name": "hrAddress",
      "outputs": [
        {
          "internalType": "address",
          "name": "",
          "type": "address"
        }
      ],
      "stateMutability": "view",
      "type": "function"
    }
  ],
  "bytecode": "0x608060405234801561001057600080fd5b50336000806101000a81548173ffffffffffffffffffffffffffffffffffffffff021916908373ffffffffffffffffffffffffffffffffffffffff1602179055506114ce806100606000396000f3fe608060405234801561001057600080fd5b506004361061004c5760003560e01c8063109947a3146100515780637daa10ce1461006f578063e3366fed1461008d578063e3c17f7c146100ab575b600080fd5b6100596100c7565b6040516100669190610a4c565b60405180910390f35b6100776100eb565b6040516100849190610bb7565b60405180910390f35b610095610370565b6040516100a29190610d18565b60405180910390f35b6100c560048036038101906100c09190610edb565b6106ce565b005b60008054906101000a900473ffffffffffffffffffffffffffffffffffffffff1681565b6100f36109c4565b600160003373ffffffffffffffffffffffffffffffffffffffff1673ffffffffffffffffffffffffffffffffffffffff16815260200190815260200160002060040160009054906101000a900460ff16610182576040517f08c379a000000000000000000000000000000000000000000000000000000000815260040161017990610ffd565b60405180910390fd5b600160003373ffffffffffffffffffffffffffffffffffffffff1673ffffffffffffffffffffffffffffffffffffffff1681526020019081526020016000206040518060a00160405290816000820160009054906101000a900473ffffffffffffffffffffffffffffffffffffffff1673ffffffffffffffffffffffffffffffffffffffff1673ffffffffffffffffffffffffffffffffffffffff1681526020016001820180546102329061104c565b80601f016020809104026020016040519081016040528092919081815260200182805461025e9061104c565b80156102ab5780601f10610280576101008083540402835291602001916102ab565b820191906000526020600020905b81548152906001019060200180831161028e57829003601f168201915b505050505081526020016002820180546102c49061104c565b80601f01602080910402602001604051908101604052809291908181526020018280546102f09061104c565b801561033d5780601f106103125761010080835404028352916020019161033d565b820191906000526020600020905b81548152906001019060200180831161032057829003601f168201915b50505050508152602001600382015481526020016004820160009054906101000a900460ff161515151581525050905090565b606060008054906101000a900473ffffffffffffffffffffffffffffffffffffffff1673ffffffffffffffffffffffffffffffffffffffff163373ffffffffffffffffffffffffffffffffffffffff1614610400576040517f08c379a00000000000000000000000000000000000000000000000000000000081526004016103f7906110ef565b60405180910390fd5b6000600280549050905060008167ffffffffffffffff81111561042657610425610d84565b5b60405190808252806020026020018201604052801561045f57816020015b61044c6109c4565b8152602001906001900390816104445790505b50905060005b828110156106c5576000600282815481106104835761048261110f565b5b9060005260206000200160009054906101000a900473ffffffffffffffffffffffffffffffffffffffff169050600160008273ffffffffffffffffffffffffffffffffffffffff1673ffffffffffffffffffffffffffffffffffffffff1681526020019081526020016000206040518060a00160405290816000820160009054906101000a900473ffffffffffffffffffffffffffffffffffffffff1673ffffffffffffffffffffffffffffffffffffffff1673ffffffffffffffffffffffffffffffffffffffff1681526020016001820180546105609061104c565b80601f016020809104026020016040519081016040528092919081815260200182805461058c9061104c565b80156105d95780601f106105ae576101008083540402835291602001916105d9565b820191906000526020600020905b8154815290600101906020018083116105bc57829003601f168201915b505050505081526020016002820180546105f29061104c565b80601f016020809104026020016040519081016040528092919081815260200182805461061e9061104c565b801561066b5780601f106106405761010080835404028352916020019161066b565b820191906000526020600020905b81548152906001019060200180831161064e57829003601f168201915b50505050508152602001600382015481526020016004820160009054906101000a900460ff1615151515815250508383815181106106ac576106ab61110f565b5b6020026020010181905250508080600101915050610465565b50809250505090565b60008054906101000a900473ffffffffffffffffffffffffffffffffffffffff1673ffffffffffffffffffffffffffffffffffffffff163373ffffffffffffffffffffffffffffffffffffffff161461075c576040517f08c379a0000000000000000000000000000000000000000000000000000000008152600401610753906110ef565b60405180910390fd5b600160008573ffffffffffffffffffffffffffffffffffffffff1673ffffffffffffffffffffffffffffffffffffffff16815260200190815260200160002060040160009054906101000a900460ff16156107ec576040517f08c379a00000000000000000000000000000000000000000000000000000000081526004016107e39061118a565b60405180910390fd5b6040518060a001604052808573ffffffffffffffffffffffffffffffffffffffff16815260200184815260200183815260200182815260200160011515815250600160008673ffffffffffffffffffffffffffffffffffffffff1673ffffffffffffffffffffffffffffffffffffffff16815260200190815260200160002060008201518160000160006101000a81548173ffffffffffffffffffffffffffffffffffffffff021916908373ffffffffffffffffffffffffffffffffffffffff16021790555060208201518160010190816108c79190611356565b5060408201518160020190816108dd9190611356565b506060820151816003015560808201518160040160006101000a81548160ff0219169083151502179055509050506002849080600181540180825580915050600190039060005260206000200160009091909190916101000a81548173ffffffffffffffffffffffffffffffffffffffff021916908373ffffffffffffffffffffffffffffffffffffffff1602179055508373ffffffffffffffffffffffffffffffffffffffff167fe90b033cd3a59f7cfff7992456f26ba604d1072eae8fce08a7087de235d6151684846040516109b6929190611461565b60405180910390a250505050565b6040518060a00160405280600073ffffffffffffffffffffffffffffffffffffffff1681526020016060815260200160608152602001600081526020016000151581525090565b600073ffffffffffffffffffffffffffffffffffffffff82169050919050565b6000610a3682610a0b565b9050919050565b610a4681610a2b565b82525050565b6000602082019050610a616000830184610a3d565b92915050565b610a7081610a2b565b82525050565b600081519050919050565b600082825260208201905092915050565b60005b83811015610ab0578082015181840152602081019050610a95565b60008484015250505050565b6000601f19601f8301169050919050565b6000610ad882610a76565b610ae28185610a81565b9350610af2818560208601610a92565b610afb81610abc565b840191505092915050565b6000819050919050565b610b1981610b06565b82525050565b60008115159050919050565b610b3481610b1f565b82525050565b600060a083016000830151610b526000860182610a67565b5060208301518482036020860152610b6a8282610acd565b91505060408301518482036040860152610b848282610acd565b9150506060830151610b996060860182610b10565b506080830151610bac6080860182610b2b565b508091505092915050565b60006020820190508181036000830152610bd18184610b3a565b905092915050565b600081519050919050565b600082825260208201905092915050565b6000819050602082019050919050565b600060a083016000830151610c1d6000860182610a67565b5060208301518482036020860152610c358282610acd565b91505060408301518482036040860152610c4f8282610acd565b9150506060830151610c646060860182610b10565b506080830151610c776080860182610b2b565b508091505092915050565b6000610c8e8383610c05565b905092915050565b6000602082019050919050565b6000610cae82610bd9565b610cb88185610be4565b935083602082028501610cca85610bf5565b8060005b85811015610d065784840389528151610ce78582610c82565b9450610cf283610c96565b925060208a01995050600181019050610cce565b50829750879550505050505092915050565b60006020820190508181036000830152610d328184610ca3565b905092915050565b6000604051905090565b600080fd5b600080fd5b610d5781610a2b565b8114610d6257600080fd5b50565b600081359050610d7481610d4e565b92915050565b600080fd5b600080fd5b7f4e487b7100000000000000000000000000000000000000000000000000000000600052604160045260246000fd5b610dbc82610abc565b810181811067ffffffffffffffff82111715610ddb57610dda610d84565b5b80604052505050565b6000610dee610d3a565b9050610dfa8282610db3565b919050565b600067ffffffffffffffff821115610e1a57610e19610d84565b5b610e2382610abc565b9050602081019050919050565b82818337600083830152505050565b6000610e52610e4d84610dff565b610de4565b905082815260208101848484011115610e6e57610e6d610d7f565b5b610e79848285610e30565b509392505050565b600082601f830112610e9657610e95610d7a565b5b8135610ea6848260208601610e3f565b91505092915050565b610eb881610b06565b8114610ec357600080fd5b50565b600081359050610ed581610eaf565b92915050565b60008060008060808587031215610ef557610ef4610d44565b5b6000610f0387828801610d65565b945050602085013567ffffffffffffffff811115610f2457610f23610d49565b5b610f3087828801610e81565b935050604085013567ffffffffffffffff811115610f5157610f50610d49565b5b610f5d87828801610e81565b9250506060610f6e87828801610ec6565b91505092959194509250565b600082825260208201905092915050565b7f4163636573732064656e6965643a20596f7520617265206e6f7420612072656760008201527f6973746572656420656d706c6f79656500000000000000000000000000000000602082015250565b6000610fe7603083610f7a565b9150610ff282610f8b565b604082019050919050565b6000602082019050818103600083015261101681610fda565b9050919050565b7f4e487b7100000000000000000000000000000000000000000000000000000000600052602260045260246000fd5b6000600282049050600182168061106457607f821691505b6020821081036110775761107661101d565b5b50919050565b7f4163636573732064656e6965643a204f6e6c792048522063616e20706572666f60008201527f726d207468697320616374696f6e000000000000000000000000000000000000602082015250565b60006110d9602e83610f7a565b91506110e48261107d565b604082019050919050565b60006020820190508181036000830152611108816110cc565b9050919050565b7f4e487b7100000000000000000000000000000000000000000000000000000000600052603260045260246000fd5b7f456d706c6f79656520697320616c726561647920726567697374657265640000600082015250565b6000611174601e83610f7a565b915061117f8261113e565b602082019050919050565b600060208201905081810360008301526111a381611167565b9050919050565b60008190508160005260206000209050919050565b60006020601f8301049050919050565b600082821b905092915050565b60006008830261120c7fffffffffffffffffffffffffffffffffffffffffffffffffffffffffffffffff826111cf565b61121686836111cf565b95508019841693508086168417925050509392505050565b6000819050919050565b600061125361124e61124984610b06565b61122e565b610b06565b9050919050565b6000819050919050565b61126d83611238565b6112816112798261125a565b8484546111dc565b825550505050565b600090565b611296611289565b6112a1818484611264565b505050565b5b818110156112c5576112ba60008261128e565b6001810190506112a7565b5050565b601f82111561130a576112db816111aa565b6112e4846111bf565b810160208510156112f3578190505b6113076112ff856111bf565b8301826112a6565b50505b505050565b600082821c905092915050565b600061132d6000198460080261130f565b1980831691505092915050565b6000611346838361131c565b9150826002028217905092915050565b61135f82610a76565b67ffffffffffffffff81111561137857611377610d84565b5b611382825461104c565b61138d8282856112c9565b600060209050601f8311600181146113c057600084156113ae578287015190505b6113b8858261133a565b865550611420565b601f1984166113ce866111aa565b60005b828110156113f6578489015182556001820191506020850194506020810190506113d1565b86831015611413578489015161140f601f89168261131c565b8355505b6001600288020188555050505b505050505050565b600061143382610a76565b61143d8185610f7a565b935061144d818560208601610a92565b61145681610abc565b840191505092915050565b6000604082019050818103600083015261147b8185611428565b9050818103602083015261148f8184611428565b9050939250505056fea2646970667358221220a799a3b3deacf976855e62f317e19b3dcc2ae68d888debf8bf9cad75e0451d6f64736f6c63430008180033",
  "linkReferences": {},
  "deployedLinkReferences": {}
}